:1000000012C02CC02BC02AC029C028C027C026C0BF
:1000100025C024C023C0C5C021C020C01FC01EC031
:100020001DC0BDC11BC011241FBECFE5D4E0DEBF83
:10003000CDBF10E0A0E6B0E0ECE2F4E002C0059035
:100040000D92A038B107D9F720E0A0E8B0E001C0D8
:100050001D92A93FB207E1F7F7D0E6C1D1CF20E169
:100060002093A20082E08093A3008091AE008F5F76
:100070008093AE0081E08093A40093E09093A5006C
:1000800035E03093A60034E03093A7008093A800B9
:1000900031E23093A9008093AA0080E28093AB0004
:1000A0002093AC009093AD006CE070E082EA90E0A9
:1000B000A7D1089520E12093960042E04093970055
:1000C0009091AE009F5F9093AE0031E03093980026
:1000D00093E09093990055E050939A0040939B00D1
:1000E00030939C0031E230939D0080939E0060939A
:1000F0009F002093A0009093A1006CE070E086E93F
:1001000090E07ED1089520E120938B0082E08093DF
:100110008C008091AE008F5F8093AE0081E0809371
:100120008D0093E090938E0034E030938F008093A5
:100130009000809391003093920087E08093930029
:1001400020939400909395006BE070E08BE890E032
:1001500057D1089520E12093800082E080938100B0
:100160008091AE008F5F8093AE0081E0809382002B
:1001700093E09093830034E0309384008093850073
:1001800080938600309387008CE0809388002093D2
:10019000890090938A006BE070E080E890E030D1B5
:1001A00008951F920F920FB60F9211248F939F9371
:1001B000EF93FF935F9BFECFE091F7008CB1F0E0EF
:1001C000E059FF4F80838091F7008430E0F0809108
:1001D000F700843059F4E091F700F0E0E059FF4F68
:1001E00080818E5F8093B2001092C4008091B20033
:1001F000811106C091E09093C4009FEF90937F001F
:1002000081508093B2008091F7008F5F8093F70058
:10021000E091F700F0E0E059FF4F1182FF91EF917C
:100220009F918F910F900FBE0F901F90189584E0B3
:1002300082B92FB781E090E002C0880F991F2A95FC
:10024000E2F7856486BF089587E190E0CED0EFDFC6
:10025000A09A7894C6EED0E00F2EFFE7EF2EF0E0E4
:10026000FF2EF02D07ED10E00F2EF9EDAF2EF0E090
:10027000BF2EF02D0F2EF8EDCF2EF0E0DF2EF02D5B
:1002800089EF90E00197F1F700C0000088818F3F6F
:10029000B9F7F7011082F8018081823081F018F4FB
:1002A000813031F0EDCF833069F0843071F0E8CFE8
:1002B000F5016081F6018081FDDE1882E1CFCFDE9D
:1002C0001882DECF20DF1882DBCF44DF1882D8CF40
:1002D00006B607FE63C081B1887F8838D1F160F42B
:1002E0008036C9F020F4882309F456C00895883672
:1002F00051F18038A9F00895883BB9F128F4803A8B
:1003000029F1883A49F10895803C09F442C0883CBB
:1003100009F43FC0089584EC86BF1092B10008959F
:100320008091B10093B1E82FF0E0E952FF4F908344
:100330008F5F8093B100803118F084E886BF089504
:1003400084EC86BF089581E08093AF0084EC86BF83
:10035000089584EC86BF089581E08093B000809179
:10036000600083B984EC86BF0895E091B000F0E0AE
:10037000E05AFF4F808183B98091B0008F5F8093F6
:10038000B000803118F084E886BF089584EC86BF01
:10039000089584EC86BF089584ED86BF08951F926A
:1003A0000F920FB60F9211242F933F934F935F93A9
:1003B0006F937F938F939F93AF93BF93EF93FF932D
:1003C00087DF86B7816086BFFF91EF91BF91AF91C4
:1003D0009F918F917F916F915F914F913F912F915D
:1003E0000F900FBE0F901F90189590BD89B988E9A6
:1003F0008AB986E880BD08955D9BFECF8CB90895CB
:100400000F931F93CF93DF938C01EB01209739F06B
:10041000F80181918F01F0DF21972097C9F7DF91D3
:10042000CF911F910F910895F894FFCF05101520DB
:10043000253035400000000000000000010A0F00D8
:10044000000000000000000000000000FFFFFFFFB0
:10045000FFFFFFFFFFFFFFFFFFFFFFFFFFFFFFFFAC
:10046000FFFFFFFFFFFFFFFFFFFFFFFFFFFFFFFF9C
:10047000FFFFFFFFFFFFFFFFFFFFFFFFFFFFFFFF8C
:10048000FFFFFFFFFFFFFFFFFFFFFFFFFFFFFFFF7C
:00000001FF
