S01400004C49435F536C6176655F30322E737265631D
S113000012C021C020C01FC01EC01DC01CC01BC008
S11300101AC019C018C0D9C016C015C014C013C066
S113002012C0DBC110C011241FBECFE5D4E0DEBF77
S1130030CDBF20E0A0E6B0E001C01D92A93FB20709
S1130040E1F721D1F0C1DCCF20E12093820082E0EE
S11300508093830080918E008F5F80938E0081E077
S11300608093840093E09093850035E0309386007C
S113007034E0309387008093880031E23093890024
S113008080938A0080E280938B0020938C0090936D
S11300908D006CE070E082E890E083D0089520E168
S11300A02093760042E04093770090918E009F5F0A
S11300B090938E0031E03093780093E09093790030
S11300C055E050937A0040937B0030937C0031E2FA
S11300D030937D0080937E0060937F0020938000A6
S11300E0909381006CE070E086E790E05AD0089528
S11300F020E120936B0082E080936C0080918E005D
S11301008F5F80938E0081E080936D0093E09093E5
S11301106E0034E030936F00809370008093710020
S11301203093720087E0809373002093740090935F
S113013075006BE070E08BE690E033D0089520E129
S11301402093600082E08093610080918E008F5F35
S113015080938E0081E08093620093E0909363002B
S113016034E030936400809365008093660030939C
S113017067008CE0809368002093690090936A0084
S11301806BE070E080E690E00CD0089590BD89B9F2
S113019088E98AB986E880BD08955D9BFECF8CB955
S11301A008950F931F93CF93DF938C01EB01209756
S11301B039F0F80181918F01F0DF21972097C9F779
S11301C0DF91CF911F910F9108951F920F920FB657
S11301D00F9211248F939F93EF93FF935F9BFECF16
S11301E0E091F7008CB1F0E0ED55FF4F80838091F2
S11301F0F7008430E0F08091F700843059F4E09106
S1130200F700F0E0ED55FF4F80818E5F8093A200F0
S11302101092C4008091A200811106C091E09093D5
S1130220C4009FEF9093B20081508093A20080910C
S1130230F7008F5F8093F700E091F700F0E0ED5551
S1130240FF4F1182FF91EF919F918F910F900FBEFD
S11302500F901F901895E7EDF0E087EE90E0119273
S1130260E817F907E1F71092E600089582E082B9F1
S11302702FB781E090E002C0880F991F2A95E2F71A
S1130280856486BF089587E190E080DFEFDFA09A60
S11302907894C6EED0E00F2EF2EBEF2EF0E0FF2EB6
S11302A0F02D07ED10E00F2EF9EDAF2EF0E0BF2E8C
S11302B0F02D0F2EF8EDCF2EF0E0DF2EF02D86E698
S11302C09EE00197F1F7000088818F3FC1F7F701A5
S11302D01082F8018081823081F018F4813031F08D
S11302E0EECF833069F0843071F0E9CFF50160819D
S11302F0F6018081D4DEAFDFE2CFA6DEACDFDFCF54
S1130300F7DEA9DFDCCF1BDFA6DFD9CF06B607FEF9
S113031063C081B1887F8838D1F160F48036C9F038
S113032020F4882309F456C00895883651F18038A2
S1130330A9F00895883BB9F128F4803A29F1883A64
S113034049F10895803C09F442C0883C09F43FC057
S1130350089584EC86BF1092A10008958091A100B5
S113036093B1E82FF0E0E952FF4F90838F5F8093C1
S1130370A100803118F084E886BF089584EC86BF1C
S1130380089581E080938F0084EC86BF089584EC07
S113039086BF089581E08093A0008091900083B986
S11303A084EC86BF0895E091A000F0E0E057FF4F91
S11303B0808183B98091A0008F5F8093A0008031F9
S11303C018F084E886BF089584EC86BF089584EC11
S11303D086BF089584ED86BF08951F920F920FB6CD
S11303E00F9211242F933F934F935F936F937F93B7
S11303F08F939F93AF93BF93EF93FF9387DF86B75A
S1130400816086BFFF91EF91BF91AF919F918F91D2
S11304107F916F915F914F913F912F910F900FBEFC
S10D04200F901F901895F894FFCF79
S9030000FC
